{
  "contractName": "Admin",
  "abi": [
    {
      "inputs": [],
      "payable": false,
      "stateMutability": "nonpayable",
      "type": "constructor"
    },
    {
      "constant": false,
      "inputs": [
        {
          "name": "_newAdmin",
          "type": "address"
        }
      ],
      "name": "changeAdmin",
      "outputs": [],
      "payable": false,
      "stateMutability": "nonpayable",
      "type": "function"
    },
    {
      "constant": true,
      "inputs": [],
      "name": "getAdminAddress",
      "outputs": [
        {
          "name": "",
          "type": "address"
        }
      ],
      "payable": false,
      "stateMutability": "view",
      "type": "function"
    }
  ],
  "bytecode": "0x608060405234801561001057600080fd5b50336000806101000a81548173ffffffffffffffffffffffffffffffffffffffff021916908373ffffffffffffffffffffffffffffffffffffffff160217905550610255806100606000396000f3fe60806040526004361061004c576000357c0100000000000000000000000000000000000000000000000000000000900463ffffffff1680638f28397014610051578063b2e6b912146100a2575b600080fd5b34801561005d57600080fd5b506100a06004803603602081101561007457600080fd5b81019080803573ffffffffffffffffffffffffffffffffffffffff1690602001909291905050506100f9565b005b3480156100ae57600080fd5b506100b7610200565b604051808273ffffffffffffffffffffffffffffffffffffffff1673ffffffffffffffffffffffffffffffffffffffff16815260200191505060405180910390f35b6000809054906101000a900473ffffffffffffffffffffffffffffffffffffffff1673ffffffffffffffffffffffffffffffffffffffff163373ffffffffffffffffffffffffffffffffffffffff161415156101bd576040517f08c379a00000000000000000000000000000000000000000000000000000000081526004018080602001828103825260168152602001807f53656e646572206e6f7420617574686f72697a65642e0000000000000000000081525060200191505060405180910390fd5b806000806101000a81548173ffffffffffffffffffffffffffffffffffffffff021916908373ffffffffffffffffffffffffffffffffffffffff16021790555050565b60008060009054906101000a900473ffffffffffffffffffffffffffffffffffffffff1690509056fea165627a7a72305820920f215b4a451ce670a39a26839592d6ba667c78b7e337c722940925e24730e90029",
  "source": "pragma solidity >=0.4.21 <0.6.0;\n//admin permission contract\ncontract Admin {\n  //admin address variable\n  address admin ;\n  //admin contract constructor to set admin as person who executes or deploys smart contract using msg.sender function\n  constructor() public{\n    admin = msg.sender;\n  }\n//setting acess modifier to restrict other addresses from acessing criticial functions .\n  modifier onlyAdmin()\n{\n    require(\n        msg.sender == admin,\n        \"Sender not authorized.\"\n    );\n    // Do not forget the \"_;\"! It will\n    // be replaced by the actual function\n    // body when the modifier is used.\n    _;\n}\n  function changeAdmin(address _newAdmin) onlyAdmin() public {\n    admin = _newAdmin;\n\n  }\n  function getAdminAddress() public view returns (address) {\n    return admin;\n\n  }\n\n}\n\ncontract LicenseToken {\n  string public LicenseName;\n\n\n  address owner;\n  constructor() public {\n      LicenseName=\"BillGatesPersonalLicense\";\n\n  }\n  function getLicenseName() public view returns (string memory) {\n    string memory a = LicenseName;\n    return a;\n  }\n\n}\n",
  "sourcePath": "/Users/vrushangdesai/Desktop/blocks-frontend/backend/contracts/LicenseToken.sol",
  "compiler": {
    "name": "solc",
    "version": "0.5.0+commit.1d4f565a.Emscripten.clang"
  },
  "schemaVersion": "3.0.0",
  "updatedAt": "2019-01-05T19:50:24.248Z",
  "devdoc": {
    "methods": {}
  },
  "userdoc": {
    "methods": {}
  }
}