{
  "contractName": "LicenseToken",
  "abi": [
    {
      "constant": true,
      "inputs": [],
      "name": "LicenseName",
      "outputs": [
        {
          "name": "",
          "type": "string"
        }
      ],
      "payable": false,
      "stateMutability": "view",
      "type": "function"
    },
    {
      "inputs": [],
      "payable": false,
      "stateMutability": "nonpayable",
      "type": "constructor"
    },
    {
      "constant": true,
      "inputs": [],
      "name": "getLicenseName",
      "outputs": [
        {
          "name": "",
          "type": "string"
        }
      ],
      "payable": false,
      "stateMutability": "view",
      "type": "function"
    }
  ],
  "bytecode": "0x608060405234801561001057600080fd5b506040805190810160405280601881526020017f42696c6c4761746573506572736f6e616c4c6963656e736500000000000000008152506000908051906020019061005c929190610062565b50610107565b828054600181600116156101000203166002900490600052602060002090601f016020900481019282601f106100a357805160ff19168380011785556100d1565b828001600101855582156100d1579182015b828111156100d05782518255916020019190600101906100b5565b5b5090506100de91906100e2565b5090565b61010491905b808211156101005760008160009055506001016100e8565b5090565b90565b6102e2806101166000396000f3fe60806040526004361061004c576000357c0100000000000000000000000000000000000000000000000000000000900463ffffffff1680633dd491df14610051578063a341793b146100e1575b600080fd5b34801561005d57600080fd5b50610066610171565b6040518080602001828103825283818151815260200191508051906020019080838360005b838110156100a657808201518184015260208101905061008b565b50505050905090810190601f1680156100d35780820380516001836020036101000a031916815260200191505b509250505060405180910390f35b3480156100ed57600080fd5b506100f661020f565b6040518080602001828103825283818151815260200191508051906020019080838360005b8381101561013657808201518184015260208101905061011b565b50505050905090810190601f1680156101635780820380516001836020036101000a031916815260200191505b509250505060405180910390f35b60008054600181600116156101000203166002900480601f0160208091040260200160405190810160405280929190818152602001828054600181600116156101000203166002900480156102075780601f106101dc57610100808354040283529160200191610207565b820191906000526020600020905b8154815290600101906020018083116101ea57829003601f168201915b505050505081565b60608060008054600181600116156101000203166002900480601f0160208091040260200160405190810160405280929190818152602001828054600181600116156101000203166002900480156102a85780601f1061027d576101008083540402835291602001916102a8565b820191906000526020600020905b81548152906001019060200180831161028b57829003601f168201915b50505050509050809150509056fea165627a7a72305820a52d7909b2712c943f7bbd32d4f52caaed01ebcf777ec9a156e32479f1d97b5f0029",
  "source": "pragma solidity >=0.4.21 <0.6.0;\n//admin permission contract\ncontract Admin {\n  //admin address variable\n  address admin ;\n  //admin contract constructor to set admin as person who executes or deploys smart contract using msg.sender function\n  constructor() public{\n    admin = msg.sender;\n  }\n//setting acess modifier to restrict other addresses from acessing criticial functions .\n  modifier onlyAdmin()\n{\n    require(\n        msg.sender == admin,\n        \"Sender not authorized.\"\n    );\n    // Do not forget the \"_;\"! It will\n    // be replaced by the actual function\n    // body when the modifier is used.\n    _;\n}\n  function changeAdmin(address _newAdmin) onlyAdmin() public {\n    admin = _newAdmin;\n\n  }\n  function getAdminAddress() public view returns (address) {\n    return admin;\n\n  }\n\n}\n\ncontract LicenseToken {\n  string public LicenseName;\n\n\n  address owner;\n  constructor() public {\n      LicenseName=\"BillGatesPersonalLicense\";\n\n  }\n  function getLicenseName() public view returns (string memory) {\n    string memory a = LicenseName;\n    return a;\n  }\n\n}\n",
  "sourcePath": "/Users/vrushangdesai/Desktop/blocks-frontend/backend/contracts/LicenseToken.sol",
  "compiler": {
    "name": "solc",
    "version": "0.5.0+commit.1d4f565a.Emscripten.clang"
  },
  "schemaVersion": "3.0.0",
  "updatedAt": "2019-01-05T19:50:24.249Z",
  "devdoc": {
    "methods": {}
  },
  "userdoc": {
    "methods": {}
  }
}