{
  "contractName": "LicenseToken",
  "abi": [
    {
      "constant": true,
      "inputs": [
        {
          "name": "",
          "type": "uint256"
        }
      ],
      "name": "licenseNumberToClient",
      "outputs": [
        {
          "name": "",
          "type": "address"
        }
      ],
      "payable": false,
      "stateMutability": "view",
      "type": "function"
    },
    {
      "constant": false,
      "inputs": [
        {
          "name": "_newAdmin",
          "type": "address"
        }
      ],
      "name": "changeAdmin",
      "outputs": [],
      "payable": false,
      "stateMutability": "nonpayable",
      "type": "function"
    },
    {
      "constant": true,
      "inputs": [
        {
          "name": "",
          "type": "uint256"
        }
      ],
      "name": "licenseNumberToBeApproved",
      "outputs": [
        {
          "name": "",
          "type": "address"
        }
      ],
      "payable": false,
      "stateMutability": "view",
      "type": "function"
    },
    {
      "constant": true,
      "inputs": [],
      "name": "getAdminAddress",
      "outputs": [
        {
          "name": "",
          "type": "address"
        }
      ],
      "payable": false,
      "stateMutability": "view",
      "type": "function"
    },
    {
      "inputs": [],
      "payable": false,
      "stateMutability": "nonpayable",
      "type": "constructor"
    },
    {
      "anonymous": false,
      "inputs": [
        {
          "indexed": false,
          "name": "account",
          "type": "address"
        },
        {
          "indexed": false,
          "name": "licenseNumber",
          "type": "uint256"
        }
      ],
      "name": "LicenseGiven",
      "type": "event"
    },
    {
      "anonymous": false,
      "inputs": [
        {
          "indexed": false,
          "name": "_from",
          "type": "address"
        },
        {
          "indexed": false,
          "name": "_to",
          "type": "address"
        },
        {
          "indexed": false,
          "name": "_licenseNumber",
          "type": "uint256"
        }
      ],
      "name": "Transfer",
      "type": "event"
    },
    {
      "anonymous": false,
      "inputs": [
        {
          "indexed": false,
          "name": "admin",
          "type": "address"
        },
        {
          "indexed": false,
          "name": "approved",
          "type": "address"
        },
        {
          "indexed": false,
          "name": "licenseNumber",
          "type": "uint256"
        }
      ],
      "name": "Approval",
      "type": "event"
    },
    {
      "constant": true,
      "inputs": [],
      "name": "totalLicenses",
      "outputs": [
        {
          "name": "total",
          "type": "uint256"
        }
      ],
      "payable": false,
      "stateMutability": "view",
      "type": "function"
    },
    {
      "constant": true,
      "inputs": [
        {
          "name": "_account",
          "type": "address"
        }
      ],
      "name": "balanceOf",
      "outputs": [
        {
          "name": "balance",
          "type": "uint256"
        }
      ],
      "payable": false,
      "stateMutability": "view",
      "type": "function"
    },
    {
      "constant": true,
      "inputs": [
        {
          "name": "_license_number",
          "type": "uint256"
        }
      ],
      "name": "ownerOf",
      "outputs": [
        {
          "name": "owner",
          "type": "address"
        }
      ],
      "payable": false,
      "stateMutability": "view",
      "type": "function"
    },
    {
      "constant": false,
      "inputs": [
        {
          "name": "_from",
          "type": "address"
        },
        {
          "name": "_to",
          "type": "address"
        },
        {
          "name": "_license_number",
          "type": "uint256"
        }
      ],
      "name": "transferFrom",
      "outputs": [],
      "payable": false,
      "stateMutability": "nonpayable",
      "type": "function"
    },
    {
      "constant": false,
      "inputs": [
        {
          "name": "_account",
          "type": "address"
        },
        {
          "name": "_registeredOn",
          "type": "uint256"
        },
        {
          "name": "_expiresOn",
          "type": "uint256"
        },
        {
          "name": "_hwid",
          "type": "bytes32"
        }
      ],
      "name": "giveLicense",
      "outputs": [],
      "payable": false,
      "stateMutability": "nonpayable",
      "type": "function"
    }
  ],
  "bytecode": "0x608060405234801561001057600080fd5b50336000806101000a81548173ffffffffffffffffffffffffffffffffffffffff021916908373ffffffffffffffffffffffffffffffffffffffff160217905550610c9f806100606000396000f3fe608060405260043610610099576000357c0100000000000000000000000000000000000000000000000000000000900463ffffffff1680630e80a2871461009e57806323b872dd146100c95780636352211e1461014457806370a08231146101bf5780637a85280014610224578063891332131461029f5780638f2839701461030e578063a0f0e17f1461035f578063b2e6b912146103da575b600080fd5b3480156100aa57600080fd5b506100b3610431565b6040518082815260200191505060405180910390f35b3480156100d557600080fd5b50610142600480360360608110156100ec57600080fd5b81019080803573ffffffffffffffffffffffffffffffffffffffff169060200190929190803573ffffffffffffffffffffffffffffffffffffffff1690602001909291908035906020019092919050505061043e565b005b34801561015057600080fd5b5061017d6004803603602081101561016757600080fd5b8101908080359060200190929190505050610589565b604051808273ffffffffffffffffffffffffffffffffffffffff1673ffffffffffffffffffffffffffffffffffffffff16815260200191505060405180910390f35b3480156101cb57600080fd5b5061020e600480360360208110156101e257600080fd5b81019080803573ffffffffffffffffffffffffffffffffffffffff169060200190929190505050610605565b6040518082815260200191505060405180910390f35b34801561023057600080fd5b5061025d6004803603602081101561024757600080fd5b810190808035906020019092919050505061064e565b604051808273ffffffffffffffffffffffffffffffffffffffff1673ffffffffffffffffffffffffffffffffffffffff16815260200191505060405180910390f35b3480156102ab57600080fd5b5061030c600480360360808110156102c257600080fd5b81019080803573ffffffffffffffffffffffffffffffffffffffff169060200190929190803590602001909291908035906020019092919080359060200190929190505050610681565b005b34801561031a57600080fd5b5061035d6004803603602081101561033157600080fd5b81019080803573ffffffffffffffffffffffffffffffffffffffff1690602001909291905050506107c7565b005b34801561036b57600080fd5b506103986004803603602081101561038257600080fd5b81019080803590602001909291905050506108ce565b604051808273ffffffffffffffffffffffffffffffffffffffff1673ffffffffffffffffffffffffffffffffffffffff16815260200191505060405180910390f35b3480156103e657600080fd5b506103ef610901565b604051808273ffffffffffffffffffffffffffffffffffffffff1673ffffffffffffffffffffffffffffffffffffffff16815260200191505060405180910390f35b6000600180549050905090565b6000809054906101000a900473ffffffffffffffffffffffffffffffffffffffff1673ffffffffffffffffffffffffffffffffffffffff163373ffffffffffffffffffffffffffffffffffffffff16141515610502576040517f08c379a00000000000000000000000000000000000000000000000000000000081526004018080602001828103825260168152602001807f53656e646572206e6f7420417574686f72697a65642e0000000000000000000081525060200191505060405180910390fd5b600073ffffffffffffffffffffffffffffffffffffffff168273ffffffffffffffffffffffffffffffffffffffff161415151561053e57600080fd5b3073ffffffffffffffffffffffffffffffffffffffff168273ffffffffffffffffffffffffffffffffffffffff161415151561057957600080fd5b61058483838361092a565b505050565b60006002600083815260200190815260200160002060009054906101000a900473ffffffffffffffffffffffffffffffffffffffff169050600073ffffffffffffffffffffffffffffffffffffffff168173ffffffffffffffffffffffffffffffffffffffff16141515156105fd57600080fd5b809050919050565b6000600360008373ffffffffffffffffffffffffffffffffffffffff1673ffffffffffffffffffffffffffffffffffffffff168152602001908152602001600020549050919050565b60026020528060005260406000206000915054906101000a900473ffffffffffffffffffffffffffffffffffffffff1681565b6000809054906101000a900473ffffffffffffffffffffffffffffffffffffffff1673ffffffffffffffffffffffffffffffffffffffff163373ffffffffffffffffffffffffffffffffffffffff16141515610745576040517f08c379a00000000000000000000000000000000000000000000000000000000081526004018080602001828103825260168152602001807f53656e646572206e6f7420417574686f72697a65642e0000000000000000000081525060200191505060405180910390fd5b600061075385858585610af6565b90507f438c1191298866ed823d6b9068bc5bdcdea4883fb9ad0584b7c51354efa3c44e8582604051808373ffffffffffffffffffffffffffffffffffffffff1673ffffffffffffffffffffffffffffffffffffffff1681526020018281526020019250505060405180910390a15050505050565b6000809054906101000a900473ffffffffffffffffffffffffffffffffffffffff1673ffffffffffffffffffffffffffffffffffffffff163373ffffffffffffffffffffffffffffffffffffffff1614151561088b576040517f08c379a00000000000000000000000000000000000000000000000000000000081526004018080602001828103825260168152602001807f53656e646572206e6f7420417574686f72697a65642e0000000000000000000081525060200191505060405180910390fd5b806000806101000a81548173ffffffffffffffffffffffffffffffffffffffff021916908373ffffffffffffffffffffffffffffffffffffffff16021790555050565b60046020528060005260406000206000915054906101000a900473ffffffffffffffffffffffffffffffffffffffff1681565b60008060009054906101000a900473ffffffffffffffffffffffffffffffffffffffff16905090565b600360008373ffffffffffffffffffffffffffffffffffffffff1673ffffffffffffffffffffffffffffffffffffffff16815260200190815260200160002060008154809291906001019190505550816002600083815260200190815260200160002060006101000a81548173ffffffffffffffffffffffffffffffffffffffff021916908373ffffffffffffffffffffffffffffffffffffffff160217905550600073ffffffffffffffffffffffffffffffffffffffff168373ffffffffffffffffffffffffffffffffffffffff16141515610a5257600360008473ffffffffffffffffffffffffffffffffffffffff1673ffffffffffffffffffffffffffffffffffffffff16815260200190815260200160002060008154809291906001900391905055505b7fddf252ad1be2c89b69c2b068fc378daa952ba7f163c4a11628f55a4df523b3ef838383604051808473ffffffffffffffffffffffffffffffffffffffff1673ffffffffffffffffffffffffffffffffffffffff1681526020018373ffffffffffffffffffffffffffffffffffffffff1673ffffffffffffffffffffffffffffffffffffffff168152602001828152602001935050505060405180910390a1505050565b60008060009054906101000a900473ffffffffffffffffffffffffffffffffffffffff1673ffffffffffffffffffffffffffffffffffffffff163373ffffffffffffffffffffffffffffffffffffffff16141515610bbc576040517f08c379a00000000000000000000000000000000000000000000000000000000081526004018080602001828103825260168152602001807f53656e646572206e6f7420417574686f72697a65642e0000000000000000000081525060200191505060405180910390fd5b610bc4610c4e565b606060405190810160405280858152602001868152602001848152509050600060018083908060018154018082558091505090600182039060005260206000209060030201600090919290919091506000820151816000015560208201518160010155604082015181600201555050039050610c4133888361092a565b8092505050949350505050565b606060405190810160405280600081526020016000815260200160008019168152509056fea165627a7a72305820375d3ccbc8d014e94e5774b20beb8e86c3eef947f18a1c41733015b70c4a526a0029",
  "source": "pragma solidity >=0.4.21 <0.6.0;\n//admin permission contract\ncontract Admin {\n  //admin address variable\n  address admin ;\n  //admin contract constructor to set admin as person who executes or deploys smart contract using msg.sender function\n  constructor() public{\n    admin = msg.sender;\n  }\n//setting acess modifier to restrict other addresses from acessing criticial functions .\n  modifier onlyAdmin()\n{\n    require(\n        msg.sender == admin,\n        \"Sender not Authorized.\"\n    );\n    // Do not forget the \"_;\"! It will\n    // be replaced by the actual function\n    // body when the modifier is used.\n    _;\n}\n//Change Admin Address Or Ownership\n  function changeAdmin(address _newAdmin) onlyAdmin() public {\n    admin = _newAdmin;\n\n  }\n  //function to get admin retrieve current admin address from blockchain\n  function getAdminAddress() public view returns (address) {\n    return admin;\n\n  }\n\n}\n//License Token Contract Start's Here\n\n//Inheriting All The Properties Ans Attribute's Of Admin Contract .\ncontract LicenseToken is Admin {\n\n//Now Building Proper Data Type To Store All The Attribute's Of Each License .\n  struct LicenseAttributes {\n\n    uint registeredOn;\n    uint expiresOn;\n    bytes32 device_hardware_id;\n\n  }\n//declaring list of our license tokens with attributes as an array .\n  LicenseAttributes[] license;\n//setting dictionary to store license data\n//Would Look Something Like This \"array Index\" => \"address of client\"\nmapping (uint256 => address) public licenseNumberToClient;\n//Would Look Something Like  \"Client Address\" => \"Total Licenses Owned By An Individual\"\nmapping (address => uint256) ownershipLicenseCount;\n//\"License Index\" => \"To Addresses For Which Licenses Have To Be Approved\"\nmapping (uint256 => address) public licenseNumberToBeApproved;\n\n//events\n//Genereate An Event When License Is Give To A Specific Address\nevent LicenseGiven(address account,uint256 licenseNumber);\n//Generate Evenet When License Is Transfered From One Address To Another\nevent Transfer(address _from,address _to,uint256 _licenseNumber);\n//Generate Event When Admin Approve's A New License\nevent Approval(address admin,address approved,uint256 licenseNumber);\n//contructor\nconstructor() public {\n\n}\n//started to implement basic function's\n//this function will return us total number of licenses\n\n  function totalLicenses() public view returns (uint256 total) {\n    return license.length;\n  }\n  //balanceof will return us total eth balance availaible in given eth address\n  function balanceOf(address _account) public view returns (uint256 balance) {\n\n      return  ownershipLicenseCount[_account];\n\n  }\n  //This Function Will Return Us Address Of Owner From Index Of License Token\n  function ownerOf(uint256 _license_number) public view returns (address owner) {\n\n    owner = licenseNumberToClient[_license_number];\n    //.i.e owner might not be burn address : 0x0000000000000000000000000000000000000000 else everyone will get free license's\n    //as we will be adding burned/expired licenses to burned address.\n    require(owner != address(0));\n    return  owner;\n\n  }\n//*******Crucial Financial Function To Make Transfer\n//This Is onlyAdmin Functionality And Admin Can Only Make This On User Request\n  function transferFrom(address _from,address _to,uint256 _license_number)onlyAdmin() public {\n    //neither burn address\n    require(_to!=address(0));\n    //nor it should be admin address\n    require(_to!=address(this));\n//Now A private function will intiate this transfer after doing validation's here\n    _transfer(_from,_to,_license_number);\n\n\n  }\n\n//this function is also admin only and only admin can create tokens \n  function giveLicense(address _account,uint _registeredOn,uint _expiresOn,bytes32 _hwid)onlyAdmin() public {\n    //now a private function will generate license and we wil store and emit it as an event\n    uint256 licenseId = _mint(_account,_registeredOn,_expiresOn,_hwid);\n    emit LicenseGiven(_account,licenseId);\n  }\n\n\n  //Internal Private Methods\n  function _owns(address _claimant,uint _licenseId) internal view returns (address) {\n    return licenseNumberToClient[_licenseId];\n\n  }\n\n//this function will create a new token with unique attributes\n  function _mint(address _account,uint _registeredOn,uint _expiresOn,bytes32 _hwid) onlyAdmin() internal returns (uint256 tokenId){\n    //string memory hwid = string(_hwid);\n    LicenseAttributes memory licenseToken = LicenseAttributes({\n      registeredOn :_expiresOn,\n      expiresOn : _registeredOn ,\n      device_hardware_id : _hwid\n      });\n      //finally lets push this newly created structure into the array \n      uint id = license.push(licenseToken) -1;\n      //and now lets send it to the user we created it for\n     //Sending It from msg.sender .i.e. admin to the user what we need is our address,recievers address and his unique license index\n      _transfer(msg.sender,_account,id);\n      return id;\n\n  }\n  //this function will transfer token from one address to another\n  function _transfer(address _from,address _to,uint _licNumber)internal {\n    ownershipLicenseCount[_to]++;\n    licenseNumberToClient[_licNumber]=_to;\n    //and if this function is not created burn address then we remove the license count on senders id\n    if(_from!= address(0)){\n      ownershipLicenseCount[_from]--;\n\n    }\n    emit Transfer(_from, _to, _licNumber);\n  }\n}",
  "sourcePath": "/Users/vrushangdesai/Desktop/smeth/Blockchain-Licenses/backend/contracts/LicenseToken.sol",
  "compiler": {
    "name": "solc",
    "version": "0.5.0+commit.1d4f565a.Emscripten.clang"
  },
  "schemaVersion": "3.0.0",
  "updatedAt": "2019-01-25T10:18:08.965Z",
  "devdoc": {
    "methods": {}
  },
  "userdoc": {
    "methods": {}
  }
}